:020000040800F2
:1000000000200020353B00087128000873280008F4
:1000100000000000000000000000000000000000E0
:10002000000000000000000000000000752800082B
:100030000000000000000000772800087928000870
:10004000853B0008853B0008853B0008853B000890
:10005000853B0008853B0008853B0008853B000880
:10006000853B0008853B0008853B0008853B000870
:10007000853B0008853B0008853B0008853B000860
:10008000853B0008853B000800000000853B000818
:10009000853B0008853B0008853B0008853B000840
:1000A000853B0008853B0008853B0008853B000830
:1000B000853B000800000000853B000800000000B0
:1000C00010B5064C2378002B07D1054B002B02D02E
:1000D000044800E000BF0123237010BD840000200D
:1000E00000000000FC430008044B10B5002B03D0B7
:1000F0000349044800E000BF10BDC04600000000F6
:1001000088000020FC430008002243088B4274D37F
:1001100003098B425FD3030A8B4244D3030B8B4208
:1001200028D3030C8B420DD3FF22090212BA030C11
:100130008B4202D31212090265D0030B8B4219D3F2
:1001400000E0090AC30B8B4201D3CB03C01A524112
:10015000830B8B4201D38B03C01A5241430B8B425A
:1001600001D34B03C01A5241030B8B4201D30B0343
:10017000C01A5241C30A8B4201D3CB02C01A52416A
:10018000830A8B4201D38B02C01A5241430A8B422D
:1001900001D34B02C01A5241030A8B4201D30B0216
:1001A000C01A5241CDD2C3098B4201D3CB01C01A30
:1001B000524183098B4201D38B01C01A524143093A
:1001C0008B4201D34B01C01A524103098B4201D328
:1001D0000B01C01A5241C3088B4201D3CB00C01A95
:1001E000524183088B4201D38B00C01A524143080D
:1001F0008B4201D34B00C01A5241411A00D2014632
:10020000524110467047FFE701B5002000F0F0F8BA
:1002100002BDC0460029F7D076E7704703460B437E
:100220007FD4002243088B4274D303098B425FD3EF
:10023000030A8B4244D3030B8B4228D3030C8B421B
:100240000DD3FF22090212BA030C8B4202D3121201
:10025000090265D0030B8B4219D300E0090AC30BD6
:100260008B4201D3CB03C01A5241830B8B4201D383
:100270008B03C01A5241430B8B4201D34B03C01A6C
:100280005241030B8B4201D30B03C01A5241C30AE4
:100290008B4201D3CB02C01A5241830A8B4201D355
:1002A0008B02C01A5241430A8B4201D34B02C01A3F
:1002B0005241030A8B4201D30B02C01A5241CDD2E4
:1002C000C3098B4201D3CB01C01A524183098B422F
:1002D00001D38B01C01A524143098B4201D34B0118
:1002E000C01A524103098B4201D30B01C01A52417B
:1002F000C3088B4201D3CB00C01A524183088B4202
:1003000001D38B00C01A524143088B4201D34B00EA
:10031000C01A5241411A00D201465241104670475C
:100320005DE0CA0F00D04942031000D34042534061
:1003300000229C4603098B422DD3030A8B4212D321
:10034000FC22890112BA030A8B420CD38901921153
:100350008B4208D3890192118B4204D389013AD090
:10036000921100E08909C3098B4201D3CB01C01A65
:10037000524183098B4201D38B01C01A5241430978
:100380008B4201D34B01C01A524103098B4201D366
:100390000B01C01A5241C3088B4201D3CB00C01AD3
:1003A000524183088B4201D38B00C01A5241D9D2EB
:1003B00043088B4201D34B00C01A5241411A00D26C
:1003C0000146634652415B10104601D34042002B68
:1003D00000D54942704763465B1000D3404201B5E7
:1003E000002000F005F802BD0029F8D016E770479C
:1003F0007047C0469E2110B5C905041C00F03CFDA5
:10040000002803D1201C00F09DFC10BD9E21201C63
:10041000C90500F0D3FA00F095FC80231B069C462A
:100420006044F2E7F8B54746CE4643025B0A440013
:10043000C20F9C464800DD004B02240E5B0A000EF2
:1004400080B5984626009146C90FDB00271A8A42DC
:1004500029D0002F15DD00284AD1002B00D095E0CF
:10046000ED08FF2C00D188E06B025B0AE6B25B026C
:10047000F605580A3043D20710430CBC9046994603
:10048000F8BD002F00D087E0601CC0B2012800DC5E
:10049000B6E0EE1A720100D5C5E0002E3DD1002273
:1004A00000260023E3E7002F00DC96E000285DD063
:1004B000FF2C60D08022D20413431B2F00DDECE020
:1004C0002022D21B18009340F8405A1E9341034348
:1004D000ED186B017BD50134FF2C00D1B7E0012270
:1004E00007262A406B089A4D1D4015432E4029E0EF
:1004F000FF2CB5D08022D20413431B2F00DDB2E0C5
:100500002022D21B19009340F9405A1E93410B43FD
:10051000ED1A6B015BD5AD01AE09300000F0B6FC01
:1005200005388640844265DC041B330020200134FA
:10053000E340041BA640751EAE41334307261D0051
:1005400000241E4001224B461A40002E04D00F23E7
:100550002B40042B00D004356B0100D480E701341C
:10056000E6B2FF2C2FD1FF26002380E7002B52D1CB
:10057000FF2C00D074E70A00ED08002DF3D0802393
:10058000DB032B435B025B0AFF2670E7013F002F72
:10059000BED0FF2CB1D163E7002C47D0FF2869D033
:1005A0008024E4047A4225431B2A00DDC5E02C00A8
:1005B0002026D440B21A95406A1E954125435D1B02
:1005C00004008946A5E7AB015B0A50E7002401223D
:1005D0004B461A406B07BAD142E7002F3BD101349A
:1005E000E0B201284ADDFF2CBDD00726ED186D08CA
:1005F0002E40A7E70723574D241A35401E40A1E798
:10060000002C1BD1002D6ED1002B00D19AE00A00E6
:100610001D003C0024E7013F002F00D158E7FF2CCC
:1006200000D04AE7A7E75E1B894676E7002D1CD17C
:100630000A00FF281FD004001D0011E7002D5DD126
:10064000002B17D180230022DB03FF260FE70A00CF
:10065000FF2600230BE7002C21D1002D66D1FF28B7
:10066000E9D11D0087E7012352E77A1CA7D0FA439E
:10067000FF2899D10A001D00FF24F1E6002E21D1A8
:10068000002D4FD0002B4CD0ED186B019ED5314B77
:1006900007362E4001241D4054E7012318E7FF28A8
:1006A000DFD08024E4047F4225431B2F4DDC20262D
:1006B000F61B2C00B540FC406A1E95412543ED1801
:1006C000040006E7002DCCD0002B00D153E7802199
:1006D0006046C903084203D04046084200D11D00CD
:1006E0000121114047E7002B00D1B9E6EA1A500179
:1006F00025D507265D1B2E40894623E7FF24002BC6
:1007000000D1ADE680226046D203104204D04046BC
:10071000104201D11D00894601224B46FF241A4098
:100720009EE62B00DD080A0000249DE67A1CC6D058
:10073000FF43FF28B9D11D001DE701253FE7151E26
:1007400000D044E70022002391E60125B7E7C04628
:10075000FFFFFF7DFFFFFFFBF0B54E4657464546C6
:10076000DE46E0B543025B0A450083B00F1C9946A4
:100770002D0EC60F002D57D0FF2D24D08020DB007A
:10078000C0041843002381469A469B467F3D7C0265
:100790007A00FB0F640A120E984623D0FF2A4BD032
:1007A000E30080240020E4047F3A1C43AD186B1C56
:1007B00047460193534677403A000F2B48D87D496E
:1007C0009B00CB589F46002B00D085E008339A460B
:1007D000063B9B467C027A00FB0FFF25640A120E43
:1007E0009846DBD1002C00D090E0524601231A43FA
:1007F00092460120DBE74C4658461700022824D0D9
:10080000032800D1CFE00022002301284DD1580257
:10081000D205400AFF071043384303B03CBC904662
:100820009946A246AB46F0BD002B5BD104239A4605
:10083000033B00259B46AAE7FF35002C60D15246BA
:1008400002231A4392460220B1E7FF220023DEE78B
:100850004B461B0C9C464B462604360C180461463E
:100860003300220C6446000C43434E435043544330
:1008700080191A0C1218964203D9802149028C461D
:1008800064441B041B0C1004C01883015E1EB3419A
:10089000800E1843130C1B199B0103431C002301FA
:1008A00079D5012362081C401443019A7F32002A43
:1008B0004DDD630704D00F232340042B00D0043404
:1008C000230103D53C4B019A1C408032FE2ABCDC3C
:1008D000A3015B0AD2B29AE70C239A46093BFF2593
:1008E0009B4654E7180000F0D1FA4A46431F76258C
:1008F0009A4000236D4291462D1A9A469B4646E740
:10090000524603231A439246032050E7200000F08A
:10091000BDFA431F2D1A9C40763D002047E78023F7
:100920000027DB03FF2272E7424666E74C463200AF
:10093000584662E780234A46DB031A4222D01C4213
:1009400020D123435B025B0A4746FF225FE7012376
:100950009A1A1B2A21DC23000199D3409E318C4036
:100960001A0023005C1EA34113435A0704D00F2230
:100970001A40042A00D004335A0111D49B015B0AA7
:10098000002244E780234A46DB0313435B025B0AF1
:100990003700FF223BE7019587E70022002336E777
:1009A0000122002333E78023DB0323435B025B0A3E
:1009B000FF222CE76C490008FFFFFFF7F8B5474618
:1009C000CE464400C20F80B547024802400A844622
:1009D000664648007F0A240EF60025009046FB007C
:1009E000000EC90FB146FF2800D185E001267140F5
:1009F000261A914257D0002E43DD002800D07FE018
:100A00004946002900D1AAE0013E002E00D0F7E0BF
:100A10005B1A5A0100D48BE09B019C09200000F076
:100A200035FA05388440854200DDD3E0451B2300BC
:100A300020200135EB40451BAC40621E944123430E
:100A4000072400251C40012241460A40002C04D006
:100A50000F211940042900D00433590100D480E04B
:100A60000135ECB2FF2D00D0A3E0FF2400235B0290
:100A7000E405580AD207204310430CBC904699461F
:100A8000F8BD002E74D1601CC0B2012800DCA7E0C4
:100A90004A469C1A620100D5B6E0002CBED1002265
:100AA00000240023E3E7002E00DC85E0002846D088
:100AB000FF2C49D080224846D204104381460122AF
:100AC0001B2E09DC20204C46801B84404A46200017
:100AD000F240441EA04102439B185A0128D501351B
:100AE000FF2D00D1A8E00122072494491A405B0899
:100AF0000B4013431C40A6E7002E00D078E775E7B3
:100B0000FF2C54D080224946D20411438946012249
:100B10001B2E09DC20214846891B88404A460100DB
:100B2000F240481E81410A439B1A5A0100D573E7DF
:100B3000012241460A40590700D089E711E04846A2
:100B4000002858D1FF2C0CD1DB08002B00D18CE7FA
:100B50008020C00303435B025B0AFF2487E7FF2C6E
:100B600025D0DB08FF2DF0D05B025B0AECB27EE7FC
:100B7000002C4DD0FF2818D08024E4047242234377
:100B80001B2A00DDC4E01C002025D440AA1A934093
:100B90005A1E934123434A460500D31A884638E734
:100BA000721CF8D0F243FF28EAD10A004B46FF2519
:100BB000D7E79B015B0A5AE7002E41D1651CE9B2D9
:100BC000012945DDFF2D00D14FE707244B445B0889
:100BD0001C4038E707225A4B2D1A2340144032E7B5
:100BE000002C1DD1002B7AD14B46002B00D191E077
:100BF0000A000025B5E7013E002E19D14B446CE7F1
:100C0000FF2C84D1FF25ACE74A468846D41A05E775
:100C1000002BC5D10A00FF28C8D005004B46A0E72D
:100C2000002B49D14B46002B77D00A00FF2598E7CF
:100C3000FF2C00D043E787E70A00FF24002316E7D4
:100C4000002C15D1002B57D1FF28E6D14B467BE76E
:100C5000002C20D1002B57D04946002953D04B44BB
:100C60005A0168D50724364A1C4001251340EAE69C
:100C7000FF28EBD08022D204764213431B2E53DC94
:100C80002025AD1B1A00AB40F2405C1EA34113436C
:100C90004B44050021E7002BD8D04946002900D15C
:100CA00052E78021C9030F4200D14DE76046084258
:100CB00000D049E74B4647E74846FF25002800D1CA
:100CC0004FE78022D203174204D06046104201D180
:100CD0004B46884601224146FF250A4041E74846E7
:100CE00000281FD01A1A500120D54A460724D31ACB
:100CF0001C4088460025A6E6741CC9D0F643FF2890
:100D0000BCD14B4620E799464B460025DB082BE734
:100D1000012340E700220023A9E680230022DB0311
:100D2000FF24A4E600251CE70123B1E7002AF1D047
:100D300013000025FCE60025FAE6C046FFFFFF7D14
:100D4000FFFFFFFB41024200C30F490A120E0020C1
:100D50007E2A0DD99D2A0CD8802000040143952AB3
:100D60000ADC9620821AD1404842002B00D10800AC
:100D70007047034A9818FBE7963A9140F4E7C0465B
:100D8000FFFFFF7F70B500283DD0C317C5185D4039
:100D9000C40F280000F07AF89E22121A962A07DC67
:100DA000D2B2082833DD083885406802400A23E0C3
:100DB000992A0BDD052329001B1AD94003001B3398
:100DC0009D402B005D1EAB4119430D00052801DD40
:100DD000431F9D402B000F490B406E0709D00F2683
:100DE0003540042D05D004335D0102D59F220B4010
:100DF000121A9B01580AD2B24002D205400AE407F7
:100E00001043204370BD002400220020F4E7680254
:100E1000400AF1E7FFFFFFFB8446081C6146FFE73D
:100E20001FB500F0C7F8002801D40021C8421FBD3B
:100E300010B500F049F84042013010BD10B500F087
:100E4000B9F8002801DB002010BD012010BDC0460C
:100E500010B500F0AFF8002801DD002010BD012022
:100E600010BDC04610B500F057F8002801DC002086
:100E700010BD012010BDC04610B500F04DF800288F
:100E800001DA002010BD012010BDC0461C21012345
:100E90001B04984201D3000C10391B0A984201D35D
:100EA000000A08391B09984201D30009043902A23B
:100EB000105C40187047C0460403020201010101A2
:100EC000000000000000000070B542004E024C001F
:100ED00045026D0A120EC30F760A240EC90FFF2AAF
:100EE0000FD0FF2C11D00120A24200D070BDB5421E
:100EF000FCD18B420DD0002AF8D12800451EA84114
:100F0000F4E70120002DF1D1EBE70120002EEDD117
:100F1000E9E70020EAE7C04670B54A004E02450204
:100F200044006D0A240EC30F760A120EC90FFF2C5F
:100F300015D0FF2A0ED0002C15D1002A01D1002E89
:100F40001CD0002D14D08B4227D00220013B18402A
:100F5000013870BD002EEED002204042F9E7002D8E
:100F6000FAD1FF2A0ED0002A0ED1002EEDD00BE0D0
:100F700001230139994308000130EAE70020002DE0
:100F8000E7D0E2E7002EE7D18B42DED1944205DDC7
:100F90000221581E08400138DBE70024A24204DC8D
:100FA000B542D2D80020B542D3D2581E012398436F
:100FB0000130CEE730B5420044024D02C30F480075
:100FC000640A120E6D0A000EC90FFF2A12D0FF2804
:100FD0000CD0002A12D1002819D1002D17D1002CD5
:100FE0002BD00220013B1840013826E0002DF0D024
:100FF000022022E0002CFBD1FF281FD000281FD1A7
:10100000002D1DD10220013B1840013815E0002CB5
:101010000ED08B42E5D10022904204DCAC42E0D8F5
:101020000020AC4209D2581E01239843013004E04D
:101030000123013999430800013030BD002DD7D17B
:101040008B42CED18242E7DD0221581E0840013892
:10105000F3E7C04602780B78002A03D00130013153
:101060009A42F7D0D01A704730B583B06B46DD1D79
:10107000D8710C4C21880022606801F08FFD218915
:101080000022E06801F08AFD2000103005230122D3
:10109000290002F029FA2189E068012201F07EFD91
:1010A00003B030BDA000002030B583B06B46DD1D1D
:1010B000D8710C4C21880122606801F06FFD2189F4
:1010C0000022E06801F06AFD2000103005230122B3
:1010D000290002F009FA2189E068012201F05EFD91
:1010E00003B030BDA0000020F8B507000D001600C9
:1010F0001C002A20FFF7B8FF380AFFF7D5FFF8B227
:10110000FFF7D2FF300AFFF7CFFFF0B2FFF7CCFFB7
:101110002B20FFF7A9FF280AFFF7C6FFE8B2FFF769
:10112000C3FF200AFFF7C0FFE0B2FFF7BDFF2C208E
:10113000FFF79AFFF8BD0000F0B5CE46474680B5F0
:1011400083B001900D00160099460AAB1B889846A3
:101150000CAB1F884E4C23001033180064220199F9
:1011600002F03CFDE56026814B46636043462380E8
:1011700001223100280001F011FD012239000B98F5
:1011800001F00CFD0120FFF76FFF642001F0E0FB90
:101190002820FFF769FFC020FFF766FF2620FFF732
:1011A00083FFC120FFF760FF1120FFF77DFFC520FF
:1011B000FFF75AFF3520FFF777FF3E20FFF774FF58
:1011C000C720FFF751FFBE20FFF76EFF3620FFF765
:1011D0004BFF4820FFF768FF3A20FFF745FF5520F7
:1011E000FFF762FFB120FFF73FFF0020FFF75CFF32
:1011F0001F20FFF759FF2A20FFF736FF0020FFF7D7
:1012000053FF0020FFF750FF0020FFF74DFFEF20B6
:10121000FFF74AFF2B20FFF727FF0020FFF744FFCF
:101220000020FFF741FF0120FFF73EFF3F20FFF7BF
:101230003BFF3420FFF718FFB720FFF715FF07200B
:10124000FFF732FFB620FFF70FFF0A20FFF72CFF52
:101250008220FFF729FF2720FFF726FF0020FFF756
:1012600023FF1120FFF700FF642001F071FB29200C
:10127000FFF7FAFE642001F06BFB2C20FFF7F4FE71
:10128000052001F065FB03B00CBC90469946F0BD0B
:10129000A000002010B514000B000200FFF724FF8F
:1012A000200AFFF701FFE0B2FFF7FEFE10BD0000CD
:1012B00070B50500124B1B78012B0DD0032B0BD002
:1012C000022B01D0042B0ED14022EF23FF3200214C
:1012D0000020FFF709FF06E04023FF33EF22002143
:1012E0000020FFF701FF9624640206E0013C280A73
:1012F000FFF7DAFEE8B2FFF7D7FE002CF6D170BD9B
:101300000000002070B504AC2588161A01365C1A5E
:101310000134744396267602B44200D934009BB25D
:1013200092B289B280B2FFF7DFFE06E0013C280AE4
:10133000FFF7BAFEE8B2FFF7B7FE002CF6D170BD9A
:10134000F0B5DE4657464E464546E0B583B00F0041
:1013500016001D000CAB1B8800936B1ADA179B1844
:1013600053409846331ADA179B18534099469845CC
:1013700004DC2B0035001E0007000800AF4205DC2E
:101380003300060018002B003D001F007B1B9BB2A2
:101390009B461BB2821BD11752184A409246DC0F63
:1013A000E4186410864221DB01235B4201930CE0C8
:1013B000B1B2A8B2009AFFF76DFF5346E41AA3B288
:1013C0001CB2002C0BDB01352DB2BD4211DCC8452F
:1013D000EEDDA9B2B0B2009AFFF75CFFEDE7019A2B
:1013E0009446664436B25B441CB2ECE70123019399
:1013F000EBE703B03CBC90469946A246AB46F0BD35
:1014000000B583B0821892B2013A12B200930B0079
:10141000FFF796FF03B000BD00B583B08A1892B203
:10142000013A12B2009313000200FFF789FF03B0E4
:1014300000BDF0B5C64600B582B005000E001C0028
:1014400008AB1F88904202D8130002001D00A6427C
:1014500024D910B221B2AA1A93B298461AB23B000C
:1014600001910090FFF7CCFF341B24B23B00220017
:1014700001990098FFF7D0FF28B23B0022000199A4
:10148000FFF7CAFF43465A1C12B231B23B00009824
:10149000FFF7B6FF02B004BC9046F0BD2300340055
:1014A0001E00D6E7F0B5DE4657464E464546E0B547
:1014B00085B08046894603929A460EAB1B889B46B0
:1014C0000FAB1D784B4B1B78012B18D0032B16D07C
:1014D000EF290DDC4023FF33984209DC6A005219E2
:1014E00053004B44012B03D4EB004344012B17D58D
:1014F00005B03CBC90469946A246AB46F0BD43467B
:10150000EF2BF5DC4023FF339945F1DC6A005219DB
:1015100053004344012BEBD4EB004B44012BE7D4A5
:10152000039BAF2B02D90133DBB20393002750E0BA
:101530004B46E11889B24346D81980B25246FFF7AC
:10154000A9FE17E0D34515D0012D31D042466A439C
:10155000B8182B0063434946C918029179198C4683
:101560006244691C8C46CC446344594600910299FC
:10157000FFF7C8FE7608013464B2072C24DCF307B9
:10158000E0D5012DD4D042466A43B8182B006343FE
:101590004946C918029179198C466244691C8C46E7
:1015A000CC446344514600910299FFF7ABFEE1E75A
:1015B0004B46E11889B24346D81980B25A46FFF724
:1015C00069FED7E700260FE03B0047469846013703
:1015D0007FB2052F00DD8BE7F4D0039A9300944689
:1015E0006344FB18044AD65C00244346B8461F00F7
:1015F000C3E7C0460000002014440008F0B5DE46F2
:101600004F4680B585B081468B46029203930CAB62
:101610001F880DAB1E787300F3185D00ADB2002477
:101620000BE020006843584400B201960097039BEA
:101630000299FFF737FF0134A4B23B2C03D84B4685
:101640001A5D002AEDD105B00CBC91469B46F0BD59
:1016500010B502281AD00DD9032821D0042829D189
:10166000194B04221A703620FFF7FEFCE820FFF722
:101670001BFD0AE001281DD1134B01221A703620F0
:10168000FFF7F2FC8820FFF70FFD10BD0E4B022282
:101690001A703620FFF7E8FC2820FFF705FDF4E775
:1016A000094B03221A703620FFF7DEFC4820FFF7B3
:1016B000FBFCEAE7044B01221A703620FFF7D4FC4A
:1016C0008820FFF7F1FCE0E700000020014B1878CC
:1016D0007047C0460000002070B582B0060001AD22
:1016E00000232B706B70AB70184C2188002260684F
:1016F00001F054FA2E7008340A2301222900200038
:1017000001F0F2FE032001F023F90A2301226946C9
:101710000531200002F040F9002814D101AB5C78BB
:1017200024010A480A23012269460631083002F0E2
:1017300033F9002804D101AB9B781B09E418A4B24B
:10174000200002B070BD0024EBE7C0461401002069
:1017500010B5D420FFF7C0FF10BD10B59420FFF7DF
:10176000BBFF10BD10B5B420FFF7B6FF10BD0000E1
:1017700070B50400304A6C23D35C022B35D0DAB24A
:10178000022A14D9032B44D0042B23D1FFF7E5FF01
:10179000294D7023E852FFF7DBFF2B007033588090
:1017A0007835A0235B002B83503B6B8312E0012B29
:1017B00010D1FFF7CDFF214B181A1F4D7023E852AF
:1017C000FFF7CBFF2B00703358807835E6232B834F
:1017D0005A336B83FFF7C6FF1749703188800622A2
:1017E000200002F0FBF9200070BDFFF7B6FF134E9A
:1017F000301A114D7023E852FFF7AAFF361A2B005A
:1018000070335E807835A0235B002B83503B6B8365
:10181000E0E7FFF79DFF084D7023E852FFF79DFFBB
:10182000064B181A2B00703358807835E6232B832B
:101830005A336B83CEE7C04614010020FF0F00002F
:1018400010B5FFF743FF10BD70B503000E00150083
:10185000064C200008306422190002F0BFF96660CF
:101860002580FFF7EDFF6C23E05470BD14010020CC
:10187000F0B5CE46474680B583B00400FFF772FF4F
:10188000322850D901232370002500260027002D7F
:1018900030D0264B70229F5270335E80234D8023C0
:1018A000EF58103BEE5A3000FFF76CFA391CFEF788
:1018B00053FF8823E958FEF7B5FDFEF79BFD6080D6
:1018C000E6808423EF582B0070335E883000FFF7EA
:1018D00059FA391CFEF740FF8C23E958FEF7A2FDA8
:1018E000FEF788FDA0802681200003B00CBC904646
:1018F0009946F0BD0D4B99466846FFF739FF7023B6
:101900004B44984606226946180002F067F9702396
:101910004A46D35ADF19BFB243465B889E19B6B216
:101920000135EDB2B3E700232370B7E714010020BF
:10193000F0B589B01422002103A802F058F9274B12
:10194000596980208002014359615A69024000921E
:10195000009A59698020C002014359615A690240C6
:101960000192019A5A69802109030A435A615B690D
:101970000B400293029B8024E4009025ED05002299
:101980002100280001F00AF98027BF000022390059
:10199000280001F003F90022C021114801F0FEF8EF
:1019A00003940126049600240594069403A92800B4
:1019B00001F02EF8039704960594069403A92800D5
:1019C00001F026F8C023039304960594069403A916
:1019D000034801F01DF809B0F0BDC04600100240F8
:1019E0000004004810B50F480F4B036082235B00D2
:1019F000436000238360E022D200C2600361436140
:101A0000802292008261D93AFF3AC2610362436246
:101A10008362213AC26203630833436301F0FEFC30
:101A200010BDC0462C0200200030014010B50E4809
:101A30000E4B036082235B00436000238360E0223F
:101A4000D200C26003614361802292008261F93A50
:101A5000FF3AC2610362436283620721C16203638A
:101A6000426301F0DBFC10BDC801002000380040DB
:101A700010B590B02C22002105A802F0B8F8102271
:101A80000021684602F0B3F802240494012307936E
:101A90000F3308930C94A0239B030E9304A801F02A
:101AA00083F80723009301940023029303930121F9
:101AB000684601F0FDFA10B010BD0000F0B5C64652
:101AC00000B582B007000C001500022301934B4EB5
:101AD000009600230A2214214948FFF78FFDE4B243
:101AE000019400960023242214213800FFF786FD7C
:101AF000444C22685008043A3230F8273F020097DD
:101B000046230A21FFF795FC23685908463109B29C
:101B100003239846019300963B001E223A48FFF7A4
:101B20006DFD63685A08233A12B2012301930096AF
:101B3000002309213548FFF761FD636859084B1FF1
:101B400022680A3A1939002700970A20FFF771FC2A
:101B50002F4B1A6859688C46624410009A68944664
:101B60006044DB68C018401B226843001818101A34
:101B7000636859084B1F0A3A19390A380097FFF76A
:101B8000C1FB636859080A3B0F311F220092613282
:101B90002120FFF74EFC270008372A001D49380096
:101BA00002F02EF863685A08323212B243460193AB
:101BB0000096002323213800FFF720FD22685008FB
:101BC000636859080A3B043A0F310530F825AD0027
:101BD0000095FFF72EFC236859080A316268520805
:101BE000323212B209B24346019300962B000A48E2
:101BF000FFF704FD02B004BC9046F0BDFFFF0000FB
:101C0000AC49000804000020BC490008C449000891
:101C1000A8010020F8490008004A0008F0B585B086
:101C200006000D0003923B4C022301930094230015
:101C30000A2214213848FFF7E1FCEDB20195009427
:101C40002300242214213000FFF7D8FC334D2A68EA
:101C50005008043A3230009446230A21FFF7E9FB8A
:101C60002B685908463109B20327019700942300D5
:101C70001E222B48FFF7C2FC6B685A08233A12B2A7
:101C8000012301930094230009212648FFF7B6FCA5
:101C90006B6859084B1F28680A38020019390094EC
:101CA0000A20FFF72FFB6B6859080A3B0F3100949D
:101CB00080222120FFF7BDFB2E000836039A1A4927
:101CC000300001F09DFF6B685A08323212B2019762
:101CD0000094230023213000FFF790FC2A6850086D
:101CE0006B6859080A3B043A0F3105300094FFF73E
:101CF000A0FB2B6859080A316A685208323212B2C6
:101D000009B20197009423000848FFF777FC05B05B
:101D1000F0BDC046FFFF0000AC49000804000020F1
:101D2000BC490008C4490008F8490008004A0008F6
:101D300010B505380F21FEF771FA8300181810BD91
:101D400070B596214900FEF769FAC41F01D40A252F
:101D50000FE00024FBE7094B596849081E3109B21E
:101D600028B200233222FFF757FB200000F0F0FDDD
:101D700001359B235B009D42EDDD70BD040000201A
:101D800010B5074B984209DD064B9C466044064B54
:101D90001B6858430549FEF7B7F910BD0020F6E768
:101DA0007908000086F7FFFF04000020B906000054
:101DB00070B582B004000D001F4843685A083232E3
:101DC0001E4B12B208300321019100932031FFF71E
:101DD00015FC2000FFF7D4FFFFF7AAFF0400184B03
:101DE0001A6858688446624411009A6894466144AF
:101DF000DB68C918491B0B19632B01DD6424641AC5
:101E00000D4E3500083522000E49280001F0F8FE7D
:101E100072685208323212B203230193074B0093C7
:101E2000002323212800FFF7E9FB642000F090FD48
:101E3000200002B070BDC04604000020FFFF00007B
:101E4000A8010020F849000810B50B4B98420ADDA4
:101E5000FA231B01984203DC084B9C46604403E0D4
:101E6000074B586800E00020054B5B685843054964
:101E7000FEF74AF910BDC046C908000036F7FFFF5B
:101E800004000020A9060000F8B50E0015001F0090
:101E9000FFF776FF04003000FFF7D6FFAC4209DB06
:101EA000B84209DB069B9C4208DC079B984207DD91
:101EB000002000E00020F8BD0020FCE70020FAE749
:101EC0000120F8E7F0B591B000F020FDFFF7D0FD5C
:101ED000FFF72EFDFFF786FDFFF7A8FD9023DB053A
:101EE000EE4C80229200029201938022D200009256
:101EF00040222100EA48FFF71FF90220FFF7A8FB64
:101F000080222100E748FFF79FFCE74B19688022F9
:101F100052020A431A605969802252000A435A61E8
:101F2000E24B1A6808929A8808AB9A801A2200211C
:101F30002620684401F05BFEDD48FFF7B9F97BE03D
:101F400003250195DA4C009400230A222321D94865
:101F5000FFF754FB01950094002328223221D64834
:101F6000FFF74CFB02260196009400234B2214211C
:101F7000D248FFF743FB0196009400235F2214210F
:101F8000CF48FFF73BFB01960094002373221421F6
:101F9000CC48FFF733FB1F230093C7339B228721D5
:101FA0000420FFF746FA9E22F826B6000096E623A4
:101FB00052008721A520FFF73CFA019500941F23CA
:101FC0009B222B21C048FFF719FBC04F01950094BD
:101FD0001F23B92219213800FFF710FB0195009447
:101FE00033009B22D421BA48FFF708FB01950094E7
:101FF0003300B922BA213800FFF700FBFFF7B2FB2C
:102000003228FBD905AC2000FFF732FCE08821899B
:10201000E623019356330093B53BA522FFF734FF27
:102020000028EBD008ABAB4A03CA03C319001378EE
:102030000B709F48FFF73CF99C4908A8FFF70AF886
:10204000002800D17CE7A34908A8FFF703F800287F
:1020500000D1D9E0A04908A8FEF7FCFF002800D174
:1020600065E19E4908A8FEF7F5FF002800D1B0E120
:102070009B4908A8FEF7EEFF002800D1FAE1994934
:1020800008A8FEF7E7FF002800D145E2964908A816
:10209000FEF7E0FF002800D05FE303270197844D9F
:1020A000009500230A222D219048FFF7A7FA904EB1
:1020B0000197009500232D224B213000FFF79EFA57
:1020C00001970095002350220A218A48FFF796FACB
:1020D00001970095002373220A218748FFF78EFAA3
:1020E00000240094C8239B22520096210A20FFF767
:1020F000A0F98248FFF724FE019700952B000A22E1
:102100002D217A48FFF77AFA019700952B002D22AE
:102110004B213000FFF772FA019700952B005022F7
:102120000A217448FFF76AFA019700952B00732281
:102130000A217148FFF762FA0197009500230A22ED
:1021400050216F48FFF75AFA0197009500232D227E
:1021500052216C48FFF752FA02260196009500239F
:102160004B2214216848FFF749FA01960095002395
:102170005F2214216548FFF741FA0196009500237C
:10218000732214216248FFF739FA624800F0E0FB3D
:10219000464B1A6808929A8808AB9A800095C82323
:1021A0009B22520096210A20FFF7ACF80197009578
:1021B0002B000A2250215248FFF720FA0197009580
:1021C0002B002D2252214F48FFF718FA0196009557
:1021D0002B004B2214214C48FFF710FA0196009572
:1021E0002B005F2214214948FFF708FA0196009559
:1021F0002B00732214214648FFF700FA464B1C605F
:102200005C609C60DC6017E7434B1A68032143481D
:10221000FFF754FCFFF7A6FA3228FBD905AD2800DA
:10222000FFF726FBEC882D89E623019356330093B4
:10223000B53BA52229002000FFF726FE00281FD16C
:1022400046230193F6330093333BFF3BD222290010
:102250002000FFF719FE002862D173230193C333D6
:102260000093D73B0A2229002000FFF70DFE00282B
:10227000D0D0294D29682000FFF79AFD2860C9E7D2
:10228000154B1A6808929A8808AB9A80224B1A68F4
:1022900003212248FFF7C2FCCEE6C04600040048F6
:1022A000C80100202C020020000800481449000842
:1022B000FFFF0000384A0008484A0008584A000852
:1022C000744A00088C4A00089C4A0008A44A000886
:1022D000AC4A0008B04A0008C44A0008D44A0008C2
:1022E000EC4A0008004B0008644B0008704B0008E3
:1022F000804B00088C4B0008A04B0008881300009E
:10230000B44B0008C04B0008CC4B0008E44B00085D
:10231000F84B000810270000A8010020BC4A000864
:10232000C64B1A6808929A8808AB9A80AEE7C44BED
:102330005A680321C348FFF7C1FBFFF713FA32289D
:10234000FBD905AD2800FFF793FAEC882D89E62329
:10235000019356330093B53BA52229002000FFF7D7
:1023600093FD00281FD146230193F6330093333B9E
:10237000FF3BD22229002000FFF786FD002820D154
:1023800073230193C3330093D73B0A222900200013
:10239000FFF77AFD0028D0D0A94D69682000FFF72B
:1023A00007FD6860C9E708ABA74A03CA03C3190061
:1023B00013880B80A24B5A680321A248FFF72EFC1A
:1023C0003AE608ABA14A03CA03C3190013780B709D
:1023D000F0E79B4B9A6803219D48FFF76FFBFFF7DF
:1023E000C1F93228FBD905AD2800FFF741FAEC8886
:1023F0002D89E623019356330093B53BA52229008E
:102400002000FFF741FD00281FD146230193F6333A
:102410000093333BFF3BD22229002000FFF734FD1D
:10242000002820D173230193C3330093D73B0A22A2
:1024300029002000FFF728FD0028D0D0804DA96892
:102440002000FFF7B5FCA860C9E708AB814A03CAC2
:1024500003C3190013780B70794B9A6803217C48E9
:10246000FFF7DCFBE8E57C4B1A6808929A8808AB1A
:102470009A80F1E7724BDA6803217848FFF71EFB78
:10248000FFF770F93228FBD905AD2800FFF7F0F906
:10249000EC882D89E623019356330093B53BA522A2
:1024A00029002000FFF7F0FC00281FD146230193EC
:1024B000F6330093333BFF3BD22229002000FFF785
:1024C000E3FC002820D173230193C3330093D73B4F
:1024D0000A2229002000FFF7D7FC0028D0D0584D51
:1024E000E9682000FFF764FCE860C9E708AB5C4AD4
:1024F00013CA13C3190013780B70514BDA68032108
:102500005648FFF78BFB97E508AB4F4A03CA03C356
:10251000190013880B80F0E702250195514C0094B7
:1025200000230A2214215048FFF768F8019500940F
:1025300000231E2214214D48FFF760F801950094F6
:102540000023322214214A48FFF758F801950094DD
:102550000023462214214748FFF750F8F8273F028E
:10256000009746239E2252000A21D220FEF761FFE7
:102570000326019600943B001E22E6213E48FFF709
:102580003DF8019500940023642214213B48FFF795
:1025900035F81F230093C7339B2287210420FEF7C1
:1025A00048FF019600941F239B222B213448FFF7FC
:1025B00025F8019600941F23B92219213148FFF70D
:1025C0001DF8F825AD000095E6239E2252008721D4
:1025D000A520FEF72EFF019600942B00AA22AA2127
:1025E0002948FFF70BF8FFF7BDF83228FBD905ACF7
:1025F0002000FFF73DF9E5882489E623019356334F
:102600000093B53BA52221002800FFF73DFC0028E0
:102610003CD146230193F6330093333BFF3BD22258
:1026200021002800FFF730FC0028DCD008AB094A65
:1026300003CA03C3190013780B702BE01449000878
:10264000A8010020CC4A0008D44A0008B04A00087B
:10265000E04A0008EC4A0008C44A0008F84A0008AA
:10266000004B0008FFFF0000104B0008204B000843
:10267000304B0008404B0008BC4900084C4B000898
:102680005C4B0008A44A0008004A000808AA354B21
:1026900013CB13C2344C02250195009423000A2267
:1026A00014213248FEF7AAFF0195009423001E2250
:1026B00014212F48FEF7A2FF019500942300322237
:1026C00014212C48FEF79AFF01950094230046221E
:1026D00014212948FEF792FF9E277F00009446238D
:1026E0003A000A21D220FEF7A4FE032601960094A8
:1026F00023001E22E6212148FEF780FF0195009469
:102700002300642214211E48FEF778FF0094E6237C
:102710009B2287210420FEF78CFE01960094230063
:102720009B222B211748FEF769FF01960094230096
:10273000B92219211448FEF761FF0094E6233A00FC
:102740008721A520FEF775FE019600942300AA229A
:10275000AA210E48FEF752FF6EE40348FEF7A8FDDB
:102760006AE4C046644B0008FFFF0000104B0008FD
:10277000204B0008304B0008404B0008BC490008C3
:102780004C4B00085C4B0008A44A0008004A0008B3
:1027900082B00A4B996901221143996199690A40F3
:1027A0000092009ADA69802149050A43DA61DB69FF
:1027B0000B400193019B02B07047C04600100240DD
:1027C00010B58AB004001422002105A801F00FFA08
:1027D0002368234A934204D0224A934220D00AB06D
:1027E00010BD214B996980204001014399619A698C
:1027F00002400192019A5A69802189020A435A6172
:102800005B690B400293029BE0230593DE3B06933A
:1028100001330893902005A9C00500F0F9F8DEE720
:10282000114BD9698020C0010143D961DA690240A6
:102830000392039A5A698021C9020A435A615B696B
:102840000B400493049BE0231B0205930223069391
:102850000133089305A9054800F0DAF8BFE7C04640
:1028600000300140003800400010024000040048E1
:102870007047FEE77047704710B500F057F810BD7D
:1028800010B503000B4A1268002A08D0094A1068E4
:10289000C3186A46934206D8064A136010BD054A1B
:1028A00005491160F2E701F06FF90C230360012084
:1028B0004042F3E7B8010020980200207047000072
:1028C00010B504000F4B1978FA208000FDF71CFCAE
:1028D00001000D4B1868FDF717FC00F07DF800288B
:1028E0000DD1032C01D901200AE001300022210082
:1028F000404200F03FF8034B5C60002000E0012004
:1029000010BDC046180000201400002010B5064A73
:10291000136810210B4313600020FFF7D1FFFFF76E
:1029200037FF002010BDC04600200240034A116856
:10293000034B1B785B1813607047C0469002002061
:1029400018000020014B18687047C0469002002014
:1029500070B50400FFF7F6FF0500631C02D0044BBE
:102960001B78E418FFF7EEFF401BA042FAD370BDBE
:102970001800002070B5002811DB8308144DC03307
:102980009B005C5903221040C000FC3216008640B8
:10299000B44389010A40824022435A5170BDC0B2FB
:1029A0000F230340083B9B0806339B00094A9446CB
:1029B00063445D6803242040C000FF22140084406B
:1029C000A54389011140814029435960E6E7C0468B
:1029D00000E100E000ED00E001380A4B98420FD81A
:1029E000094A50600948036A1B021B0AC0210906F4
:1029F0000B4303620023936007331360002070478A
:102A00000120FCE7FFFFFF0010E000E000ED00E028
:102A1000F0B5CE46474680B583B0002333E00326A9
:102A200000E00026AE4035003D430234A400554E80
:102A3000A551554C2568D4432E0026404F68FF030E
:102A400001D515432E00504D2E606D682E00264096
:102A50004F68BF0301D515432E004B4D6E60AD6826
:102A60002E0026404F68FF0201D515432E00464D2B
:102A7000AE60ED682C404E68B60201D52A431400C2
:102A8000414AD46001330A681400DC4074D0012448
:102A90009C402240F6D04D686E1E012E03D9112DA8
:102AA00001D0122D12D185685F000326BE40B543C8
:102AB0002E00CD68BD40354385604568A5434C6810
:102AC0002609012434409C402C434460C7685E00C2
:102AD0000324B440E443A44627408D68B5403D43F9
:102AE000C5604C68022C01D0122C10D1DC080834CF
:102AF000A400A146275807251D40AD000F24AC4077
:102B0000A7430C69AC4025003D434C462550056861
:102B10006446254003244F683C40B4402C43046085
:102B20004C68E400AED5194DAE6901242643AE6170
:102B3000AD692C400194019C9C08A51CAD00114E70
:102B4000AF5903251D40AD000F26AE40B743902678
:102B5000F605B04200D164E70D4EB04208D00D4EEC
:102B6000B04207D00C4EB04200D158E7052659E7D5
:102B7000012657E7022655E703B00CBC904699465C
:102B8000F0BDC046000001400004014000100240BA
:102B90000004004800080048000C0048002A01D149
:102BA000816270478161FCE770B582B0041E00D17C
:102BB00032E20368DB0726D5AE4B5A680C2313407C
:102BC000042B18D0AB4B5A680C231340082B0ED0A3
:102BD0006368012B3CD0002B51D1A64B1A68A64943
:102BE0000A401A601A68A5490A401A6036E0A14BEB
:102BF0005B68DB03ECD59F4B1B689B0303D56368C5
:102C0000002B00D10BE223689B0773D5994B5B68BF
:102C10000C221A425DD0974B5A680C231340082BA4
:102C200053D0E368002B00D186E0924A136801215B
:102C30000B431360FFF786FE05008E4B1B689B0756
:102C400071D4FFF77FFE401B0228F6D90320E4E190
:102C5000884A116880235B020B4313606368002B72
:102C600025D0FFF76FFE0500824B1B689B03CAD47B
:102C7000FFF768FE401B6428F6D90320CDE1052B41
:102C800009D07C4B1A687C490A401A601A687B4953
:102C90000A401A60E2E7774B19688022D2020A43A1
:102CA0001A601968802252020A431A60D6E7FFF7B9
:102CB00049FE05006F4B1B689B03A4D5FFF742FE3E
:102CC000401B6428F6D90320A7E16A4B5B68DB034D
:102CD000A7D4684B1B689B0704D5E368012B01D080
:102CE00001209AE163490B68F82293432269D200DC
:102CF00013430B6023681B0744D5E369002B2ED0D8
:102D00005C4A536A01210B435362FFF71BFE050027
:102D1000584B5B6A9B0735D4FFF714FE401B022813
:102D2000F6D9032079E153490B68F82293432269CD
:102D3000D20013430B60DDE74E4A136801218B4339
:102D40001360FFF7FFFD05004A4B1B689B07D1D5B9
:102D5000FFF7F8FD401B0228F6D903205DE1454A44
:102D6000536A01218B435362FFF7ECFD0500414B91
:102D70005B6A9B0706D5FFF7E5FD401B0228F6D9E5
:102D800003204AE123685B0700D47FE0394BDB690D
:102D9000DB001DD4374AD169802040050143D16151
:102DA000D36903400193019B0125354B1B68DB056B
:102DB00010D5A368012B21D0002B36D12D4B1A6AD8
:102DC00001218A431A621A6A03318A431A621AE09D
:102DD0000025EAE72A4A116880235B000B43136051
:102DE000FFF7B0FD0600264B1B68DB05E1D4FFF7BB
:102DF000A9FD801B6428F6D903200EE11D4A136A41
:102E000001210B431362A368002B24D0FFF79AFD26
:102E10000600184B1B6A9B0736D4FFF793FD801BF7
:102E2000184B9842F5D90320F7E0052B09D0114B38
:102E30001A6A01218A431A621A6A03318A431A62A2
:102E4000E1E70C4B1A6A04210A431A621A6A033931
:102E50000A431A62D7E7FFF775FD0600054B1B6AA8
:102E60009B0711D5FFF76EFD801B064B9842F5D9E5
:102E70000320D2E000100240FFFFFEFFFFFFFBFF38
:102E80000070004088130000012D33D02368DB065A
:102E900010D56369012B33D0053351D1644A536B8C
:102EA00004218B435363536BF4318B43A169C900F5
:102EB0000B435363236A002B00D1B2E05C4A516894
:102EC0000C220A40082A00D18AE0022B4FD0584A2F
:102ED000136858490B401360FFF734FD0400544B4E
:102EE0001B689B017AD5FFF72DFD001B0228F6D940
:102EF000032092E04E4AD3694F490B40D361C5E7A6
:102F00004B4B5A6B04210A435A635A6B03390A43E9
:102F10005A63FFF717FD0500454B5B6B9B0706D413
:102F2000FFF710FD401B0228F6D9032075E0404949
:102F30004B6BF8229343A269D20013434B63B9E76A
:102F40003B4B5A6B04210A435A635A6B03398A4339
:102F50005A63FFF7F7FC0500354B5B6B9B07A9D560
:102F6000FFF7F0FC401B0228F6D9032055E0304A59
:102F7000136830490B401360FFF7E4FC05002C4B4D
:102F80001B689B0106D5FFF7DDFC401B0228F6D924
:102F9000032042E0264BDA6A0F218A43E16A0A43A2
:102FA000DA625A6825490A40A16A606A01430A4305
:102FB0005A601968802252040A431A60FFF7C2FC63
:102FC00004001B4B1B689B0106D4FFF7BBFC001BD6
:102FD0000228F6D9032020E000201EE000201CE09B
:102FE000012B20D0124B5A68D96A80235B02134010
:102FF000606A834201D001200FE00F230B40E16A99
:103000008B4201D0012008E0F0239B031A40A36A01
:103010009A420AD0012000E0012002B070BD0120D8
:10302000FBE70020F9E70120F7E70020F5E7C046BD
:1030300000100240FFFFFFFEFFFFFFEFFFFFC2FF98
:1030400030B589B004AA174B180032C832C211003B
:1030500002680A606A46103313CB13C21B68136000
:10306000114B5A680C231340082B19D1910C0733CC
:10307000194004A8445C0C49C96A0B406946C95C04
:10308000D30308D463011B1B9801C01AC0000419A4
:10309000200209B030BD0548FDF736F86043F8E777
:1030A0000248F6E74C4900080010024000127A007E
:1030B00070B504000D00002800D181E0424B1A6871
:1030C000012313408B420BD23F490B6801229343EB
:1030D0002B430B600B681A40AA4201D0012070E01C
:1030E00023689A070ED55B0705D5384A5168E02357
:1030F000DB000B435360354A5368F0218B43A168D2
:103100000B4353602368DB072DD56368012B1ED06A
:10311000022B22D02D4A1268920753D52B494A68B8
:103120000320824313434B60FFF70CFC0600274B40
:103130005B680C221A4063689B009A4213D0FFF729
:1031400001FC801B224B9842F1D9032039E01F4A31
:1031500012689203E2D4012033E01C4A1268920103
:10316000DCD401202DE0184B1A6801231340AB4238
:103170000BD915490B68012293432B430B600B6855
:103180001A40AA4201D001201BE023685B0706D544
:103190000E4A53680F490B40E1680B435360FFF739
:1031A0004FFF0A4B5A6812090F2313400A4AD35C97
:1031B000D8400A4B18600020FFF782FB002000E097
:1031C000012070BD0120FCE70020024000100240F9
:1031D00088130000FFF8FFFF3449000814000020A6
:1031E000F8B506000C0017001D0033689B682340EB
:1031F0001B1B5A425341BB423BD06B1CF5D0FFF71F
:10320000A1FB069BC01AA84201D2002DEDD1326865
:103210005368E0218B43536082235B0072689A42BB
:103220000CD080239B01B26A9A4216D05D23012202
:10323000F254013B0022F25403201BE0B3688022C9
:103240001202934203D08022D2009342E9D1326825
:10325000136840218B431360E3E732681368064923
:103260000B4013603268116880239B010B4313608D
:10327000DCE70020F8BDC046FFDFFFFFF8B5070020
:103280000C0015001E0001E0731C0CD13A68936815
:103290002340AB4241D0C023DB009C42F4D1002D3F
:1032A000F2D1137BF0E7FFF74DFB069BC01AB0424B
:1032B00001D2002EEAD13A685368E0218B43536073
:1032C00082235B007A689A420CD080239B01BA6A01
:1032D0009A4216D05D230122FA54013B0022FA548F
:1032E00003201BE0BB6880221202934203D080229D
:1032F000D2009342E9D13A68136840218B431360AE
:10330000E3E73A68136806490B4013603A681168AE
:1033100080239B010B431360DCE70020F8BDC0460F
:10332000FFDFFFFF70B582B004000D001600C02162
:1033300000922B0000224901FFF7A0FF002818D1BE
:1033400000962B00002280212000FFF749FF002873
:1033500016D1C02100962B000022C9002000FFF7E3
:103360008DFF00280AD0236E2022134323660320FA
:1033700004E0236E202213432366032002B070BDB5
:10338000236E2022134323660320F7E770B582B033
:1033900004000D00160082235B0042689A420FD0A1
:1033A00000962B00002280212000FFF719FF002843
:1033B00015D182235B0062689A4216D002B070BDBC
:1033C000836880221202934203D08022D20093426B
:1033D000E6D12268136840218B431360E0E7236E37
:1033E0002022134323660320E8E7A3688022120209
:1033F000934203D08022D2009342DFD1C0210096B5
:103400002B000022C9002000FFF738FF0028D5D08C
:10341000236E2022134323660320CFE710B5041E3A
:103420005ED0002383625D33C35C002B4CD05D23F0
:103430000222E2542268136840218B431360E36840
:10344000E022D200934245D90022F02109018B42AB
:1034500005D0E021C9008B4201D00021A162216B7F
:10346000002905D1E021C9008B4236D9022323630C
:103470006368A1680B4321690B4361690B43802199
:103480008900A06901400B43E1690B43216A0B43AA
:103490002168A06A03430B60618B04230B40616ABF
:1034A0000B43616B0B43E1680B43216813434B6093
:1034B0002268D3690B490B40D361002323665D3337
:1034C0000122E254002010BD5C330022C254FFF7F9
:1034D00077F9ACE780225201B7E701232363C7E7FE
:1034E0000120F0E7FFF7FFFFF0B585B00400019180
:1034F00016001F005C23C35C012B00D1E2E05C23BB
:103500000122C254FFF71EFA05005D23E35C012B84
:1035100008D002205D230122E254013B0022E25444
:1035200005B0F0BD0199002900D1BDE0002E00D109
:10353000BCE05C330322E25400232366A163A68728
:10354000E68723644132A3520232A3522365E36427
:1035500080231B02A2689A421DD023681A68520673
:1035600003D41A6840210A431A60E023DB00E268B2
:103570009A4235D96368002B01D0012E1DD12368F2
:10358000A26B1288DA60A36B0233A363E38F013B63
:103590009BB2E38711E0226811688023DB010B43B3
:1035A0001360DAE7FFF7CEF9401BB84202D37B1C69
:1035B00000D07DE0002F00D17CE0E38F9BB2002B98
:1035C0005AD023689A689207ECD5A26B1288DA6009
:1035D000A36B0233A363E38F013B9BB2E387ECE76A
:1035E0006368002B01D0012E2FD1E38F9BB2012BFA
:1035F0000BD92368A26B1288DA60A36B0233A36332
:10360000E38F023B9BB2E3871FE0A36B1B7822682A
:103610001373A36B0133A363E38F013B9BB2E38777
:1036200013E0A36B1B781373A36B0133A363E38FC6
:10363000013B9BB2E38708E0FFF784F9401BB842E7
:1036400001D37B1C38D1002F38D0E38F9BB2002BE5
:1036500012D0226893689B07EED5E38F9BB2012BB3
:10366000DFD9A36B1B88D360A36B0233A363E38F03
:10367000023B9BB2E387E8E72A0039002000FFF70E
:1036800051FE002801D020232366A368002B06D119
:1036900003932368DA6803929B680393039B236E6A
:1036A000002B0DD1002035E7012033E7012031E761
:1036B00003202FE703202DE703202BE7032029E732
:1036C000012027E702202BE7F0B583B004000E00AD
:1036D00001921D005C23C35C012B00D157E15C23E8
:1036E0000122C254FFF72EF907005D23E35CDBB231
:1036F0006268012B14D0822149008A4208D002203E
:103700005D230122E254013B0022E25403B0F0BDEC
:10371000A268002A00D02CE1042B01D00220EFE7A0
:10372000002E00D127E1019B002B00D125E1002DC7
:1037300000D124E15D23E35C042B02D05D2305224C
:10374000E25400232366019A22644622A552023ADB
:10375000A552A663E587A587E3642365E023DB0024
:10376000E2689A4201D8012D23D922685368894919
:103770000B40536023681A68520603D41A6840212C
:103780000A431A60E023DB00E2689A4256D9636874
:10379000002B01D0012D0AD12368A26B1288DA60B8
:1037A000A36B0233A363E38F013B9BB2E387012545
:1037B00024E02268516880235B010B435360D9E702
:1037C00023689A68D20710D54622A25A92B2002ADC
:1037D0000BD0DB68226C1380236C023323644622F7
:1037E000A35A013B9BB2A3520125FFF7ABF8C01BC4
:1037F000089B984202D3013300D0C2E0E38F9BB212
:10380000002B05D14633E35A9BB2002B00D1A4E034
:1038100023689A689207D3D5E28F92B2002ACFD05C
:10382000012DCDD1A26B1288DA60A36B0233A363A2
:10383000E38F013B9BB2E3870025C1E76368002B60
:1038400001D0012D0ED1E38F9BB2012B0CD923683F
:10385000A26B1288DA60A36B0233A363E38F023B8F
:103860009BB2E387012546E0A36B1B7822681373A4
:10387000A36B0133A363E38F013B9BB2E387F1E7C3
:10388000E28F92B2012A0BD9A26B1288DA60A36B85
:103890000233A363E38F023B9BB2E38700253DE045
:1038A000A26B12781A73A36B0133A363E38F013BFE
:1038B0009BB2E387002531E02268516880235B01D9
:1038C0000B43536001250BE01B7B226C1370236CB0
:1038D000013323644622A35A013B9BB2A352012524
:1038E000FFF730F8C01B089B984201D301334AD13F
:1038F000089B002B49D0E38F9BB2002B04D14633A9
:10390000E35A9BB2002B28D023689A68920705D50A
:10391000E28F92B2002A01D0012DB1D023689A68BB
:10392000D207DDD54622A25A92B2002AD8D046222A
:10393000A25A92B2012AC7D9DB68226C1380236C89
:10394000023323644622A35A023B9BB2A352A35ADA
:103950009BB2012BB0D90125C2E73A00089920009B
:10396000FFF7E0FC002800D1CAE6202323660120EF
:10397000C6E60220C4E60120C2E60120C0E601201E
:10398000BEE60320BCE60320BAE60320B8E6022028
:10399000BCE6C046FFEFFFFFF0B585B004000D00A8
:1039A00016001F0082235B0042689A4217D05C23F6
:1039B000E35C012B00D1B7E05C230122E254FEF767
:1039C000C1FF03905D23E35C012B14D002205D2333
:1039D0000122E254013B0022E25405B0F0BD8368AD
:1039E000002BE4D15D330422C254009733000A0057
:1039F000FFF76AFEF1E7002D00D187E0002E00D12D
:103A000086E05C330422E2540023236625644032BE
:103A1000A6520232A652A363A387E387E364236519
:103A2000E023DB00E2689A4217D9226853683F49D5
:103A30000B40536080231B02A2689A4214D0236873
:103A40001A68520603D41A6840210A431A60E02318
:103A5000DB00E2689A4217D935E02268516880237A
:103A60005B010B435360E5E72268136830490B4064
:103A70001360E4E7FEF766FF039BC01AB84201D368
:103A80007B1C47D1002F47D04623E35A9BB2002B23
:103A90002ED023689A68D207ECD51B7B226C13705A
:103AA000236C013323644622A35A013B9BB2A352E9
:103AB000EAE7FEF747FF039BC01AB84201D37B1C1D
:103AC0002CD1002F2CD04623E35A9BB2002B0FD0D1
:103AD00023689A68D207ECD5DB68226C1380236CCC
:103AE000023323644622A35A013B9BB2A352EAE766
:103AF000039A39002000FFF749FC002801D0202359
:103B00002366236E002B0DD1002060E701205EE7C5
:103B100001205CE703205AE7032058E7032056E71B
:103B2000032054E7012052E7022056E7FFEFFFFF92
:103B3000FFBFFFFF0D4885460D480E490E4A002382
:103B400002E0D458C4500433C4188C42F9D30B4A51
:103B50000B4C002301E013600432A242FBD3FEF7BA
:103B6000ADFE00F017F8FEF7ADF9FEE700200020EB
:103B70000000002084000020484C00088400002041
:103B800098020020FEE70000014B18687047C0460D
:103B90002000002070B500260C4D0D4C641BA410B5
:103BA000A64209D1002600F029FC0A4D0A4C641BEC
:103BB000A410A64205D170BDB300EB58984701365A
:103BC000EEE7B300EB5898470136F2E7404C0008A7
:103BD000404C0008404C0008444C0008002310B53D
:103BE0009A4200D110BDCC5CC4540133F8E7030005
:103BF0001218934200D1704719700133F9E70000A1
:103C00000EB400B50B499CB01DAB02900690079115
:103C100004910948094904CB0591006802A9019360
:103C200000F070F80023029A13701CB008BC03B0B7
:103C30001847C046FFFFFF7F200000200802FFFF5B
:103C4000F0B58E6885B007000C00039201939E4288
:103C50003CD890238A89DB001A4234D003250969B5
:103C600023685B1A0293636902985D43EB0F5D1949
:103C7000019B6D1001331B18AB4200D91D00530589
:103C800032D52900380000F019FB061E09D10C239B
:103C90003B6040230120A28940421343A38105B029
:103CA000F0BD029A2169FFF799FFA389144A1A40CF
:103CB00080231343A381029B2661F6182660656169
:103CC000019EED1AA560019B9E4200D9019E320023
:103CD0000399206800F095FAA36800209B1BA3605D
:103CE00023689E192660DAE72A00380000F044FBBA
:103CF000061EE0D12169380000F096FAC7E7C046F9
:103D00007FFBFFFFF0B5A1B003901D008B890F0072
:103D100016001B0611D50B69002B0ED1402100F0B7
:103D2000CDFA38603861002805D10C23039A013898
:103D3000136021B0F0BD40237B61002308AC6361B8
:103D4000203363761033A376079535002B78002B4C
:103D500001D0252B46D1AB1B05930CD03200390086
:103D60000398FFF76DFF431C00D1AEE06269059B2D
:103D70009446634463612B78002B00D1A5E00122B7
:103D800000235242626004A9543252186E1C236010
:103D9000E360A3601370A36531780522534800F0F7
:103DA00025FA751C00281FD12268D30604D5532399
:103DB00004A95B1820211970130704D5532304A903
:103DC0005B182B21197033782A2B16D0350000216F
:103DD0000A20E3682A786E1C303A092A4ED9002955
:103DE00018D010E00135B1E7404B2268C01A01231A
:103DF0008340134323602E00CEE7079B191D1B68E9
:103E00000791002B01DB0B9304E05B42E36002238C
:103E1000134323602B782E2B0AD16B782A2B35D1B4
:103E2000079B02351A1D1B680792002B2BDB099399
:103E30002F4E29780322300000F0D8F9002806D050
:103E40004023801B83402268013513432360297877
:103E5000062228486E1C217600F0C8F900283CD0C4
:103E6000254B002B25D10722079B073393430833AB
:103E700007936369049A9B18636166E743430121D2
:103E80009B183500A6E701235B42D0E700230A20F8
:103E90001A000135636029786E1C3039092903D96D
:103EA000002BC5D00992C3E74243012352183500C5
:103EB000F1E707AB00933A00104B2100039800E0B4
:103EC00000BF0490049B0133D3D1BB890D985B06DE
:103ED00000D42EE7012040422BE707AB00933A00C5
:103EE000064B2100039800F079F8EAE70C4C000833
:103EF000124C0008164C000800000000413C00086D
:103F0000F7B5150001938A680B6900900C00934285
:103F100000DA130022002B6043321278002A01D00D
:103F200001332B6023689B0602D52B6802332B607C
:103F3000062723681F4027D0230043331B785A1ECF
:103F400093412268920630D42200019943320098AE
:103F5000089EB047431C25D0062320682A68E168E4
:103F600003400025042B03D18D1AEB43DB171D40C2
:103F7000A3682269934201DD9B1AED180027BD4218
:103F800020D1002010E00137E3682A689B1ABB4269
:103F9000D2DD22000123193201990098089EB04712
:103FA000431CF0D101204042FEBD3020E1184331D6
:103FB000087021005A1C45310978A2184332023397
:103FC0001170C1E7220001231A3201990098089E5E
:103FD000B047431CE6D00137D1E70000F0B589B007
:103FE00004920A0043320593039002920A7E0C0069
:103FF0000E9B6E2A00D186E01FD8632A33D008D8E2
:10400000002A00D18CE0582A4DD0250042352A7074
:1040100030E0642A01D0692AF7D1196825680A1DA1
:10402000280629D508681A60002803DA2D23029A89
:10403000404213706B4E0A274FE0732A74D008D8A1
:104040006F2A1FD0702AE0D1202209680A4322601B
:1040500003E0752A16D0782AD7D12200782145327C
:104060001170614E22E025001A684235111D196059
:1040700013682B70012365E008681A606906D3D5C0
:1040800000B2D1E719682568081D186008682E0677
:1040900005D5544E08276F2A1BD00A2719E06D0654
:1040A000F7D580B2F5E745314E4E0A7018682268A0
:1040B000011D00681960150621D5D30702D52023FC
:1040C0001A4322601027002803D1202322689A4334
:1040D00022602300002243331A706368A360002B20
:1040E00058DB0422216891432160002854D1029DAD
:1040F000002B5AD02500337842352B7055E05506F9
:10410000DBD580B2D9E71A680D68101D49691860BF
:1041100013682E0601D5196002E06D06FBD51980E3
:104120000023029D23614FE01A68111D1960156874
:1041300000216268280000F059F8002801D0401BD7
:104140006060636823610023029A13703CE0236976
:104150002A0004990398059DA847431C3ED0236874
:104160009B0715D4079BE068984239DA180037E0BE
:1041700022000123193204990398059EB047431C7D
:104180002CD00135E368079A9B1AAB42F0DCE9E7D3
:104190000025F7E70028ADD0029D3900FCF73AF87A
:1041A000735C013D2B700028F7D1082F09D12368DB
:1041B000DB0706D563682269934202DC3023013DA8
:1041C0002B70029B5B1B2361059B07AA00932100B8
:1041D000049B0398FFF794FE431CB8D10120404292
:1041E00009B0F0BD1D4C00082E4C0008C9B2821861
:1041F000904201D10020704703788B42FBD0013000
:10420000F6E710B5884202D98B18984203D30023F1
:1042100007E08B5C8354013AFBD210BDCC5CC454E4
:1042200001339A42FAD1F8E770B50500002910D0A1
:104230000C1F2368002B00DAE418280000F0D4F8E3
:104240001D4A1368002B05D163601460280000F03C
:10425000CCF870BDA34209D9216860188342F3D11C
:1042600018685B6841182160EEE713005A68002A5D
:1042700001D0A242F9D919685818A0420BD1206880
:104280000918581819608242E0D110685268411824
:1042900019605A60DAE7A04202D90C232B60D5E7F7
:1042A00021686018824203D1106852684118216069
:1042B00062605C60CAE7C046C0010020032370B59D
:1042C000CD1C9D43083506000C2D1ED20C25A9429D
:1042D0001DD8300000F088F8254A14682100002914
:1042E00019D1244C2368002B03D1300000F06AF868
:1042F00020602900300000F065F8431C2BD10C230E
:104300003000336000F071F803E0002DDFDA0C2399
:104310003360002070BD0B685B1B19D40B2B03D9D5
:104320000B60CC18256003E04B688C420DD1136004
:10433000300000F05AF8200007220B30231D904374
:10434000C31AE7D05A42E250E4E763600C00EFE79B
:104350000C004968C3E70323C41C9C43A042E1D07E
:10436000211A300000F02EF8431CDBD1C7E7C0460D
:10437000C0010020C4010020F8B507000D001600A0
:10438000002905D11100FFF799FF04002000F8BDB6
:10439000002A03D1FFF748FF3400F7E700F026F8C2
:1043A0002C00B042F2D231003800FFF787FF041E24
:1043B000ECD029003200FFF711FC29003800FFF78C
:1043C00033FFE3E7002370B5064C050008002360C7
:1043D000FEF756FA431C03D12368002B00D02B6054
:1043E00070BDC04694020020704770470B1F1B68C9
:1043F000181F002B01DA0B58C0187047F8B5C046DB
:10440000F8BC08BC9E467047F8B5C046F8BC08BC6E
:044410009E4670470D
:1044140000000000003E5B4F5B3E3E6B4F6B3E1C5A
:104424003E7C3E1C183C7E3C181C577D571C1C5E71
:104434007F5E1C00183C1800FFE7C3E7FF00182448
:104444001800FFE7DBE7FF30483A060E26297929F2
:1044540026407F050507407F05253F5A3CE73C5A27
:104464007F3E1C1C08081C1C3E7F14227F22145F04
:104474005F005F5F06097F017F006689956A60605F
:1044840060606094A2FFA29408047E040810207E59
:10449400201008082A1C08081C2A08081E101010DE
:1044A400100C1E0C1E0C30383E3830060E3E0E0624
:1044B400000000000000005F000000070007001477
:1044C4007F147F14242A7F2A122313086462364936
:1044D4005620500008070300001C2241000041221E
:1044E4001C002A1C7F1C2A08083E08080080703023
:1044F4000008080808080000606000201008040292
:104504003E5149453E00427F400072494949462197
:1045140041494D331814127F1027454545393C4A0B
:104524004949314121110907364949493646494922
:10453400291E00001400000040340000000814226A
:1045440041141414141400412214080201590906D8
:104554003E415D594E7C1211127C7F494949363ED9
:10456400414141227F4141413E7F494949417F09BF
:104574000909013E414151737F0808087F00417FCA
:1045840041002040413F017F081422417F404040C8
:10459400407F021C027F7F0408107F3E4141413E60
:1045A4007F090909063E4151215E7F0919294626E2
:1045B4004949493203017F01033F4040403F1F20E6
:1045C40040201F3F4038403F6314081463030478BD
:1045D40004036159494D43007F41414102040810DD
:1045E40020004141417F0402010204404040404018
:1045F400000307080020545478407F284444383886
:1046040044444428384444287F38545454180008F7
:104614007E090218A4A49C787F0804047800447DD1
:1046240040002040403D007F1028440000417F406E
:10463400007C047804787C080404783844444438C2
:10464400FC1824241818242418FC7C0804040848A2
:104654005454542404043F44243C4040207C1C20F3
:1046640040201C3C4030403C44281028444C90904E
:10467400907C4464544C44000836410000007700A8
:1046840000004136080002010204023C2623263CB5
:104694001EA1A161123A4040207A38545455592140
:1046A4005555794122545478422155547840205428
:1046B4005579400C1E527212395555555939545476
:1046C400545939555454580000457C410002457DE5
:1046D400420001457C407D1211127DF0282528F00E
:1046E4007C545545002054547C547C0A097F49323B
:1046F400494949323A4444443A324A4848303A41B2
:1047040041217A3A42402078009DA0A07D3D42425A
:10471400423D3D4040403D3C24FF2424487E4943E3
:10472400662B2FFC2F2BFF0929F620C0887E090356
:1047340020545479410000447D413048484A32387D
:104744004040227A007A0A0A727D0D19317D2629A9
:10475400292F28262929292630484D4020380808A1
:10476400080808080808382F10C8ACBA2F102834D5
:10477400FA00007B000008142A142222142A1408C8
:104784005500550055AA55AA55AAFF55FF55FF00D7
:104794000000FF00101010FF00141414FF0010108C
:1047A400FF00FF1010F010F0141414FC001414F7A0
:1047B40000FF0000FF00FF1414F404FC141417108D
:1047C4001F10101F101F1414141F00101010F000DD
:1047D4000000001F101010101F10101010F0100017
:1047E4000000FF101010101010101010FF10000027
:1047F40000FF140000FF00FF00001F10170000FC62
:1048040004F414141710171414F404F40000FF0033
:10481400F714141414141414F700F71414141714BC
:1048240010101F101F141414F4141010F010F000C2
:10483400001F101F0000001F14000000FC140000E3
:10484400F010F01010FF10FF141414FF14101010C7
:104854001F00000000F010FFFFFFFFFFF0F0F0F07A
:10486400F0FFFFFF0000000000FFFF0F0F0F0F0F0E
:104874003844443844FC4A4A4A347E02020606025A
:104884007E027E0263554941633844443C04407EC1
:10489400201E2006027E020299A5E7A5991C2A493A
:1048A4002A1C4C7201724C304A4D4D3030487848C5
:1048B40030BC625A463D3E494949007E0101017EB1
:1048C4002A2A2A2A2A44445F444440514A44404004
:1048D400444A51400000FF0103E080FF0000080843
:1048E4006B6B083612362436060F090F06000018C3
:1048F400180000001010003040FF0101001F0101EA
:104904001E00191D1712003C3C3C3C000000000036
:104914007374617274000000000000000000000065
:104924000000000000000000000000000000000083
:10493400000000000000000001020304060708094B
:10494400000000000102030402030405060708092D
:104954000A0B0C0D0E0F10100102030405060708C4
:10496400090A0B0C0D0E0F1050080008FA07000876
:10497400FA07000828090008F6070008F6070008E7
:104984001E09000828090008F60700081E09000887
:10499400F6070008280900082C0900082C0900085B
:1049A4002C0900083409000853656C6563742041C0
:1049B4006D6F756E743A00004241434B0000000075
:1049C40030252020202020202020202032352020A7
:1049D40020202020202020203530202020202020AE
:1049E4002020202037352020202020202020202097
:1049F400313030002533642525000000434F4E54E8
:104A0400494E5545000000003836373533303900FB
:104A140050555244554520554E49564552534954D4
:104A24005900000045434520343737002054656160
:104A34006D20390057656C636F6D6520746F207449
:104A440068650000426F696C6572204D6978657213
:104A540021000000576F756C6420796F75206C69B4
:104A64006B6520746F2063726561746500000000DB
:104A740061206E657720726563697065206F7220AE
:104A84006C6F616420616E006578697374696E6728
:104A9400206F6E653F0000004C4F41440000000051
:104AA40052454349504500004E45570069706561C1
:104AB4006E757473000000005045414E5554530008
:104AC400696D266D730000004D264D5300000000F3
:104AD400696368656572696F730000004348454502
:104AE40052494F5300000000696772616E6F6C6138
:104AF400000000004752414E4F4C410063686F6F05
:104B04007365546F5361766500000000576F756CD0
:104B14006420796F75206C696B652000746F207355
:104B240061766520746869732000000072656369AA
:104B34007065206265666F72650000006D616B6967
:104B44006E672069743F00004E616D653A205265BE
:104B54006369706520580000534156450000000009
:104B640070726F677265737342617200437265613C
:104B740074696E6720796F75720000005472616900
:104B84006C204D6978210000506C65617365207755
:104B940061697420756E74696C0000007468652026
:104BA4006261722069732066756C6C2E00000000CF
:104BB400547261696C204D6978000000436F6D7018
:104BC4006C65746521000000506C65617365207428
:104BD400616B6520796F757220747261696C000075
:104BE4006D69782E205468616E6B20796F7520662C
:104BF4006F7220007573696E6720426F696C65720D
:104C0400204D697865722100232D302B2000686CBB
:104C14004C006566674546470030313233343536DB
:104C24003738394142434445460030313233343514
:0C4C340036373839616263646566000041
:044C4000E90000087F
:044C4400C1000008A3
:104C48000100000040010000F000000020202020AA
:104C58002000000000127A0001000000040000009B
:104C680024000020000000000000000000000000F8
:104C7800000000000000000000000000000000002C
:104C8800000000000000000000000000000000001C
:104C9800000000000000000000000000000000000C
:104CA80000000000000000000000000000000000FC
:104CB80000000000000000000000000000000000EC
:044CC80000000000E8
:0400000508003B357F
:00000001FF
