:020000040000fa
:080000000002040000000000f2
:020000040000fa
:040008006c03000085
:020000040000fa
:04000c00c802000026
:020000040000fa
:04001000d802000012
:020000040000fa
:04001400e8020000fe
:020000040000fa
:04001800f8020000ea
:020000040000fa
:04001c0008030000d5
:020000040000fa
:040020006c0300006d
:020000040000fa
:040024006c03000069
:020000040000fa
:040028006c03000065
:020000040000fa
:04002c006c03000061
:020000040000fa
:040030006c0300005d
:020000040000fa
:040034006c03000059
:020000040000fa
:040038006c03000055
:020000040000fa
:04003c006c03000051
:020000040000fa
:040040006c0300004d
:020000040000fa
:040044006c03000049
:020000040000fa
:040048006c03000045
:020000040000fa
:04004c006c03000041
:020000040000fa
:040050006c0300003d
:020000040000fa
:040054006c03000039
:020000040000fa
:040058006c03000035
:020000040000fa
:04005c006c03000031
:020000040000fa
:040060006c0300002d
:020000040000fa
:040064006c03000029
:020000040000fa
:040068006c03000025
:020000040000fa
:04006c006c03000021
:020000040000fa
:040070006c0300001d
:020000040000fa
:040074006c03000019
:020000040000fa
:040078006c03000015
:020000040000fa
:04007c006c03000011
:020000040000fa
:040080006c0300000d
:020000040000fa
:040084006c03000009
:020000040000fa
:040088006c03000005
:020000040000fa
:04008c006c03000001
:020000040000fa
:040090006c030000fd
:020000040000fa
:040094006c030000f9
:020000040000fa
:040098006c030000f5
:020000040000fa
:04009c006c030000f1
:020000040000fa
:0400a0006c030000ed
:020000040000fa
:0400a4006c030000e9
:020000040000fa
:0400a8006c030000e5
:020000040000fa
:0400ac006c030000e1
:020000040000fa
:0400b0006c030000dd
:020000040000fa
:0400b4006c030000d9
:020000040000fa
:0400b8006c030000d5
:020000040000fa
:0400bc006c030000d1
:020000040000fa
:0400c0006c030000cd
:020000040000fa
:0400c4006c030000c9
:020000040000fa
:0400c8006c030000c5
:020000040000fa
:0400cc006c030000c1
:020000040000fa
:0400d0006c030000bd
:020000040000fa
:0400d4006c030000b9
:020000040000fa
:0400d8006c030000b5
:020000040000fa
:0400dc006c030000b1
:020000040000fa
:0400e0006c030000ad
:020000040000fa
:0400e4006c030000a9
:020000040000fa
:0400e8006c030000a5
:020000040000fa
:0400ec006c030000a1
:020000040000fa
:0400f0006c0300009d
:020000040000fa
:0400f4006c03000099
:020000040000fa
:0400f8006c03000095
:020000040000fa
:0400fc006c03000091
:020000040000fa
:040100006c0300008c
:020000040000fa
:040104006c03000088
:020000040000fa
:040108006c03000084
:020000040000fa
:04010c006c03000080
:020000040000fa
:040110006c0300007c
:020000040000fa
:040114006c03000078
:020000040000fa
:040118006c03000074
:020000040000fa
:04011c006c03000070
:020000040000fa
:040120006c0300006c
:020000040000fa
:040124006c03000068
:020000040000fa
:040128006c03000064
:020000040000fa
:04012c006c03000060
:020000040000fa
:040130006c0300005c
:020000040000fa
:040134006c03000058
:020000040000fa
:040138006c03000054
:020000040000fa
:04013c006c03000050
:020000040000fa
:040140006c0300004c
:020000040000fa
:040144006c03000048
:020000040000fa
:040208006c03000083
:020000040000fa
:04020c001a030000d1
:020000040000fa
:040210002a030000bd
:020000040000fa
:040214003a030000a9
:020000040000fa
:040218004a03000095
:020000040000fa
:04021c005a03000081
:020000040000fa
:040220006c0300006b
:020000040000fa
:040224006c03000067
:020000040000fa
:040228006c03000063
:020000040000fa
:04022c006c0300005f
:020000040000fa
:040230006c0300005b
:020000040000fa
:040234006c03000057
:020000040000fa
:040238006c03000053
:020000040000fa
:04023c006c0300004f
:020000040000fa
:040240006c0300004b
:020000040000fa
:040244006c03000047
:020000040000fa
:040248006c03000043
:020000040000fa
:04024c006c0300003f
:020000040000fa
:040250006c0300003b
:020000040000fa
:040254006c03000037
:020000040000fa
:040258006c03000033
:020000040000fa
:04025c006c0300002f
:020000040000fa
:040260006c0300002b
:020000040000fa
:040264006c03000027
:020000040000fa
:040268006c03000023
:020000040000fa
:04026c006c0300001f
:020000040000fa
:040270006c0300001b
:020000040000fa
:040274006c03000017
:020000040000fa
:040278006c03000013
:020000040000fa
:04027c006c0300000f
:020000040000fa
:040280006c0300000b
:020000040000fa
:040284006c03000007
:020000040000fa
:040288006c03000003
:020000040000fa
:04028c006c030000ff
:020000040000fa
:040290006c030000fb
:020000040000fa
:040294006c030000f7
:020000040000fa
:040298006c030000f3
:020000040000fa
:04029c006c030000ef
:020000040000fa
:0402a0006c030000eb
:020000040000fa
:0402a4006c030000e7
:020000040000fa
:0402a8006c030000e3
:020000040000fa
:0402ac006c030000df
:020000040000fa
:0402b0006c030000db
:020000040000fa
:0402b4006c030000d7
:020000040000fa
:0402b8006c030000d3
:020000040000fa
:0402bc006c030000cf
:020000040000fa
:0402c0006c030000cb
:020000040000fa
:0402c4006c030000c7
:020000040000fa
:0402c8006c030000c3
:020000040000fa
:0402cc006c030000bf
:020000040000fa
:0402d0006c030000bb
:020000040000fa
:0402d4006c030000b7
:020000040000fa
:0402d8006c030000b3
:020000040000fa
:0402dc006c030000af
:020000040000fa
:0402e0006c030000ab
:020000040000fa
:0402e4006c030000a7
:020000040000fa
:0402e8006c030000a3
:020000040000fa
:0402ec006c0300009f
:020000040000fa
:0402f0006c0300009b
:020000040000fa
:0402f4006c03000097
:020000040000fa
:0402f8006c03000093
:020000040000fa
:0402fc006c0300008f
:020000040000fa
:040300006c0300008a
:020000040000fa
:040304006c03000086
:020000040000fa
:040308006c03000082
:020000040000fa
:04030c006c0300007e
:020000040000fa
:040310006c0300007a
:020000040000fa
:040314006c03000076
:020000040000fa
:040318006c03000072
:020000040000fa
:04031c006c0300006e
:020000040000fa
:040320006c0300006a
:020000040000fa
:040324006c03000066
:020000040000fa
:040328006c03000062
:020000040000fa
:04032c006c0300005e
:020000040000fa
:040330006c0300005a
:020000040000fa
:040334006c03000056
:020000040000fa
:040338006c03000052
:020000040000fa
:04033c006c0300004e
:020000040000fa
:040340006c0300004a
:020000040000fa
:040344006c03000046
:020000040000fa
:100400004f8020000eff27000e0188000000000032
:10041000000020000000e000020032000001200087
:100420002002880014000700c20007000000e0005e
:1004300003003a00a0c6200001002000020037009f
:100440000000200001002000810f70000100320038
:1004500014000700000020000000e000020032004d
:100460000000020000000000c40b020000000000b9
:100470000040da000000fe004440a9000004200013
:100480000000e0000300320000002000a00188000e
:100490004440a800000006008a1f78008b1f7800e7
:1004a0000000060091018800800478000000eb0045
:1004b0001a003700e284440032a0b4009905ba0063
:1004c000e284440032a0b4009906ba00e2844400f9
:1004d00032a0b4000006eb00476fde00fd07b2005b
:1004e000636ce10003003a00ebff07000000eb0043
:1004f0000a003700606ce10004003a00005deb0088
:100500008b05e900fdff3e00040037006168e10053
:10051000010032000086eb000b00070019c7ba008b
:100520001905ba000e04e00003003a000a00e000da
:10053000e0ff3a0000000600fe07b2009e018800be
:100540008a047800f5ff3700395dba008b05e900b1
:100550000c003200295dba008b05e900080032006a
:100560000c00e00003003a00e284440032a0b40032
:10057000f5ff370019ddba008b05e900faff3a00f4
:100580008904e800e184440032a0b40000000600c1
:100590003400f800881f780008002000a8018800b7
:1005a0004f0478000000fa008020a900ffff370008
:1005b0003400f800881f780008002000a801880097
:1005c0004f0478000000fa008060a900ffff3700a8
:1005d0003400f800881f780008002000a801880077
:1005e0004f0478000000fa008040a900ffff3700a8
:1005f0003400f800881f780008002000a801880057
:100600004f0478000000fa008080a900ffff370047
:100610003400f800881f780008002000a801880036
:100620004f0478000000fa00e023ef0080a0a9004a
:10063000ffff37003400f800881f78000800200012
:10064000a80188004f0478000000fa008020a9006b
:10065000ffff37003400f800881f780008002000f2
:10066000a80188004f0478000000fa008060a9000b
:10067000ffff37003400f800881f780008002000d2
:10068000a80188004f0478000000fa008040a9000b
:10069000ffff37003400f800881f780008002000b2
:1006a000a80188004f0478000000fa008080a900ab
:1006b000ffff37003400f800881f78000800200092
:1006c000a80188004f0478000000fa00e023ef0042
:1006d00080a0a900ffff37000040da000000fe0004
:1006e000000178001001e200020035001061a8004e
:1006f00011e1a80030088000410880000200e000fd
:10070000010032000089be00000006000600fa0069
:10071000000f780011079800220798001e00900033
:10072000ae009000eb0207002e0090000080fa005f
:100730000000060000000500889fbe008a9fbe00e2
:1007400030044200b0844a0030054b0090854b00d5
:100750006000b1000898be000a90be000440e100ad
:1007600005c8e10006d0e10007d8e1000200310031
:10077000680040001008e8004f05be004f04be00ae
:1007800000000600889fbe008a9fbe003004be00a5
:100790002005be000418540005985c0006185d0092
:1007a00007985d00110020000440e10005c8e10049
:1007b00006d0e10007d8e100010039008000eb001d
:1007c000108810004f05be004f04be000000060058
:1007d0001200fa00889fbe008a9fbe008c9fbe0058
:1007e000e0b79f00f1b79f0082bf9f0093bf9f00bb
:1007f0000605be000404be000000eb00d0b79f0059
:10080000c0b79f00b0b79f00a0b79f0090b79f00f0
:10081000000678005fb19700cfb0970082014100d9
:100820003fb097000200e00004003d0037000700e1
:100830007e805700c0ff0700030037003300070029
:100840007e805700cfff0700dfb697000d00e00065
:100850000c0035006fb29700ffb297000fbb9700f6
:100860009fbb970010002000010020006011b8001d
:10087000000272008182720002037300838373009e
:100880001b0007000c06e80001042000810f560041
:10089000e0ff3a000d00e00004003d000802be0049
:1008a0000a03be007e805700a3ff07005fa89700e1
:1008b0000000e00005003a001fb29700afb29700b9
:1008c0003fb39700cfb39700090007006fb09700c0
:1008d000ffb097000fb997009fb997004f06be0071
:1008e0004f05be004f04be000080fa000000060065
:1008f0000100070000000600a4b79f00b5b79f00e5
:10090000c6b79f00d7b79f00000006004f09de0062
:1009100082817100b3b79f004f01de0081804000eb
:1009200082807000a1b79f008fb097004f09de0052
:10093000000040000200700090b79f007fa8970061
:100940004f01de00818040008280700081b79f00ef
:100950000d0007004f3ade00000040000400700068
:10096000f0af9f00080007000402420085824a00a1
:1009700006034b0087834b00dfff07000802be0021
:100980000a03be00000006002fb29700bfb2970016
:100990004fb39700dfb3970000000600881f780070
:1009a00018002000881f780089ff07008f87e90062
:1009b0004f04780000000600801feb0084ff070052
:1009c0008f87e90000000600889fbe008a9fbe0056
:1009d000e00f5000e08f5800e00f5900e08f590001
:1009e0000c003d006044b8006055b80000005400a1
:1009f00081805c0002015d0083815d0018002000a1
:100a00001500070008003d00180007000004eb0077
:100a1000050037000004eb000f00070002003d0056
:100a20001200070018002000dcff07000800e000ab
:100a3000060032006022b8006033b80000005200a7
:100a400081805a0002015b0083815b004f05be007c
:100a50004f04be0000000600e00f5200e08f5a0075
:100a6000e00f5b00e08f5b00000006006044b80010
:100a70006055b8000402540085825c0006035d00e6
:100a800087835d0000000600889fbe008a9fbe002d
:100a90008c1f7800e00f5000e08f5800e00f5900e5
:100aa000e08f59000d003d006044b8006055b8006b
:100ab0000000540081805c0002015d0083815d00c4
:100ac0001c0020000820e10009a8e1000ab0e100b4
:100ad0000bb8e1000d003d00080037000006eb00f8
:100ae000e00f5200e08f5a00e00f5b00e08f5b00e8
:100af00006003d006044b8006055b8000402540090
:100b000085825c0006035d0087835d00aaff070005
:100b10000c00e000060032006022b8006033b8002c
:100b20000000520081805a0002015b0083815b005b
:100b30004f0678004f05be004f04be0000000600bf
:100b4000889fbe008a9fbe008c1f78000006eb00c5
:100b5000e00f5000e08f5800e00f5900e08f59007f
:100b600007003d006044b8006055b8000000540024
:100b700081805c0002015d0083815d001c0020001b
:100b8000e00f5200e08f5a00e00f5b00e08f5b0047
:100b900007003d006044b8006055b80004025400ee
:100ba00085825c0006035d0087835d000c00a20067
:100bb0000c0007000c00e000060032006022b800c4
:100bc0006033b8000000520081805a0002015b00cf
:100bd00083815b004f0678004f05be004f04be00c6
:100be00000000600889fbe008a9fbe008c9fbe004a
:100bf0000404b8000506b8008904460060854e006c
:100c00000606b8000a054600e0854e000706b80053
:100c10008b054600040eb800890446000a854e0084
:100c2000e0854d00050eb8000a0546008b854e0094
:100c3000060eb8008b0546000416b8000a054600eb
:100c40008b854e000516b8008b054600041eb800c3
:100c50008b0546000800be000a01be004f06be001c
:100c60004f05be004f04be00000006000000eb0070
:040c70009bfe3700b0
:020000040000fa
:100c740048650000726500002773000020610000d1
:100c8400205300004d410000542000003a29000088
:100c940020200000486500007265000027730000f2
:100ca40020610000205300004d410000542000004a
:100cb4003a2900002020000020200000202000000d
:100cc40020200000200000000000000000000000c0
:100cd4000000000000000000000000000000000010
:100ce4000000000000000000000000000000000000
:020000040000fa
:100cf4000200fa00000f78001e007800e40f500094
:100d040018003200e40f500007003e00e20f5000cc
:100d140010003200e20f500010003e00e10f5000be
:100d24000a00320019003700e60f500011003200ab
:100d3400e60f50000d003900e70f50000f0032009d
:100d4400e80f50000f00320010003700c402a80062
:100d54000e003700c422a8000c003700c442a800cb
:100d64000a003700c462a80008003700c482a80043
:100d740006003700c4a2a80004003700c4c2a800bb
:100d840002003700c4e2a800000000000080fa005e
:100d9400000006000200fa00000f78001e00780030
:100da400e40f500018003200e40f500007003e002a
:100db400e20f500010003200e20f500010003e001d
:100dc400e10f50000a00320019003700e60f50000e
:100dd40011003200e60f50000d003900e70f5000fb
:100de4000f003200e80f50000f00320010003700ef
:100df400c402a9000e003700c422a9000c00370069
:100e0400c442a9000a003700c462a90008003700e0
:100e1400c482a90006003700c4a2a9000400370058
:100e2400c4c2a90002003700c4e2a9000000000007
:100e34000080fa00000006000200fa00000f7800ab
:100e44001e007800e40f500038003200e40f500018
:100e540007003e00e20f50001a003200e20f50007b
:100e640025003e00e10f50000a00320070003700f8
:100e7400e60f500047003200e60f500038003900fa
:100e8400e70f500050003200e80f50005b003200c2
:100e94006700370020168000004078006140600041
:100ea4000004a200614060000080fb00610060005b
:100eb400211680000100a1000100700020168800a6
:100ec4005b003700201680000000d1006140600004
:100ed4000004a200614060000080fb00610060002b
:100ee40000004000211680000110a10001007000e4
:100ef400201688004e003700201680004200de00d5
:100f0400614060000004a200614060000080fb00ba
:100f1400610060004200dd00211680000120a10074
:100f24000100700020168800410037002016800060
:100f34004300de00614060000004a20061406000e4
:100f44000080fb00610060004300dd00211680008a
:100f54000130a10001007000201688003400370021
:100f6400201680004400de00614060000004a200fe
:100f7400614060000080fb00610060004400dd000f
:100f8400211680000140a100010070002016880095
:100f940027003700201680004500de006140600015
:100fa4000004a200614060000080fb00610060005a
:100fb4004500dd00211680000150a10001007000f1
:100fc400201688001a003700201680004600de0034
:100fd400614060000004a200614060000080fb00ea
:100fe400610060004600dd00211680000160a10060
:100ff40001007000201688000d00370020168000c4
:101004004700de00614060000004a200614060000f
:101014000080fb00610060004700dd0021168000b5
:101024000170a1000100700020168800000000007b
:101034000080fa00000006000200fa00000f7800a9
:101044001e007800e40f50002a003200e40f500024
:1010540007003e00e20f500016003200e20f50007d
:101064001c003e00e10f50000a0032004c00370023
:10107400e60f50002f003200e60f50002500390023
:10108400e70f500034003200e80f50003b003200fc
:1010940043003700201680006100600000f0a700c4
:1010a4000000ea000000ea004f00de000040780083
:1010b4003c003700201680006200600000f0a700aa
:1010c4000000ea000000ea004f00de000040780063
:1010d40034003700201680006400600000f0a70090
:1010e4000000ea000000ea004f00de000040780043
:1010f4002c003700201680006800600000f0a70074
:101104000000ea000000ea004f00de000040780022
:1011140024003700201680007000600000f0a70053
:101124000000ea000000ea004f00de000040780002
:101134001c0037002116800000022000008060009f
:1011440000f0a7000000ea000000ea004f00de0003
:1011540000407800130037002116800000042000ae
:101164000080600000f0a7000000ea000000ea0030
:101174004f00de00004078000a003700211680008e
:10118400000820000080600000f0a7000000ea00d2
:101194000000ea004f00de00004078000100370044
:1011a4000040eb000080fa00000006000200fa0094
:1011b400000f78001e007800e40f50001800320081
:1011c400e40f500007003e00e20f50001000320010
:1011d400e20f500010003e00e10f50000a00320000
:1011e40019003700e60f500011003200e60f5000de
:1011f4000d003900e70f50000f003200e80f5000d7
:101204000f00320010003700c002a9000e003700a2
:10121400c022a9000c003700c042a9000a00370010
:10122400c062a90008003700c082a9000600370088
:10123400c0a2a90004003700c0c2a9000200370000
:10124400c0e2a900000000000080fa0000000600cf
:101254000000fa00e116800000f02f00008060001a
:10126400e0168800c116800000f02f0000806000a6
:10127400c0168800d6a2a900cbe2a900d682a90094
:10128400c7e2a900d2a2a900d282a900d682a800ee
:10129400907f240001002000d7000700c100200037
:1012a40080c3b30007010700c1002000c0c0b30021
:1012b40004010700c100200060c0b3000101070061
:1012c4006200070010c0b3000080fa0000000600ae
:1012d4000400fa00000f7800110798000a00370094
:1012e4001e007800104078000000fb000000e000c1
:1012f400110032001e007800104078001e0fe80034
:1013040010000700000000001e00900000f0a7007d
:101314000000ea000000ea004f00de000040780010
:101324009e0090008100e900110798000004e0008d
:10133400ebff3a0001003700000000000080fa00d3
:10134400000006000200fa00004f78001e00fb00b7
:10135400ea0f50000e003200ea0f500003003c0078
:10136400e80f5000150032001b003700ec0f50004e
:1013740017003200ed0f500017003a0002c8bf00fa
:10138400ea4f50002b0032003b0007002a003700d0
:1013940002c8bf00ed4f50000100320036000700c4
:1013a40000c8bf000004e00002003a008700070004
:1013b400210037007a0007001f0037003c000700b7
:1013c40000c2b300dfff0700390007001a0037002e
:1013d4001e0007001800370001c8bf00f04f50007e
:1013e4000e003a000168ef0000c8bf000004e000ee
:1013f40006003a00c100200000ccb300b100070091
:1014040010c0b30000e8b70004003700c10020009a
:1014140000c8b300ab0007000068ef001e4078006e
:101424009100070001c8bf000040e80001e8b700d0
:1014340001003700000000001e41780021802000d8
:10144400824878000080fa00000006000000fa00dc
:10145400711f200010c0b3009a000700711f200004
:1014640020c0b300970007000068ef000168ef0098
:101474000080fa00000006000000fa0000c8bf0067
:101484000004e00004003a00c100200000c8b300da
:101494008c00070003003700c100200000ccb3001b
:1014a400880007000168ef000080fa0000000600d1
:1014b4000200fa0001c8bf000004e00016003a0070
:1014c40000c8bf000004e00006003a00c10020008c
:1014d40000ccb3007b00070010c0b30000e8b700e5
:1014e40004003700c100200000c8b30075000700e5
:1014f4000068ef000040eb00004f78000200370066
:101504000d0007001e4fe8001e407800ee4f50000b
:10151400fbff36000600370001c8bf000040e900a9
:1015240001e8b700c100200000c1b3006500070056
:101534000080fa00000006000000fa00c10020004c
:1015440040c1b3005f00070001c8bf000040e800cd
:1015540001e8b70001c8bf00f04f50000e003a0088
:101564000168ef0000c8bf000004e00006003a0074
:10157400c100200000ccb3005200070010c0b3002b
:1015840000e8b70004003700c100200000c8b30021
:101594004c0007000068ef000080fa00000006001d
:1015a4000200fa000040eb00004f78000200370010
:1015b400bfff07001e4fe8001e407800ef4f5000a9
:1015c400fbff36000080fa00000006000200fa006b
:1015d4000040eb00004f780002003700d6ff070000
:1015e4001e4fe8001e407800ef4f5000fbff36000e
:1015f4000080fa00000006000400fa00008fbe001c
:1016040005003700000000000081eb008081eb0042
:101614001e0f41005e9749001e00be00e00f5000ff
:10162400e08f5800f7ff3a000080fa00000006003f
:101634000200fa00004f78001e4078000004e00029
:1016440004003200c1002000f0c0b3001d000700f8
:1016540003003700c1002000c0c0b3001900070018
:101664000080fa00000006000200fa00004f780033
:10167400d6a2a900cbe2a800e116800000f02f005a
:1016840000806000e01688009e00fb00e0168000e9
:1016940001007000e0168800d682a8000000000057
:1016a4000000000000000000d682a900cbe2a900df
:1016b400c000200001002000cfff07000080fa00d6
:1016c400000006000400fa00004f7800110798009b
:1016d400e116800000f02f0000806000e016880012
:1016e4009e00fb00e016800001007000e0168800f8
:1016f400d6a2a900cbe2a900d682a800000000006f
:101704000000000000000000d682a900d682a900d3
:101714001e0090008000eb00b7ff07000080fa0075
:10172400000006000800fa0030079800be00900090
:10173400803e20000088b90000007800000f780087
:1017440049fd0700100798002107980000000000d9
:1017540045fd07000001be001e0078006102b900cb
:101764001e009000ae0090000400400085804800f8
:10177400800f5100818f5900f5ff35000080fa0079
:10178400000006004800fa0020279800312798003e
:101794001000200085fe07002000200083fe0700c3
:1017a400abfe0700a0632800e40047002b000900fb
:1017b400b0587800c002b1008e0078000103b00078
:1017c400090009008018eb000000eb00000f78000e
:1017d40020032000100798001cff07001e0078005b
:1017e400e40047000080400001012000b8fe07002b
:1017f400100020003efd07001e009000cf80de0098
:101804006109b90004402200450f20006033b8008c
:10181400cafc0700843e2000050020006033b800a5
:101824005dfc07000000be00170007001e007800e2
:10183400f00f5000030034000000eb00000f7800ac
:10184400010037001e0fe8001000200051fd0700c2
:101854001e009000cf80de006109b9000440220020
:10186400450f20006033b800b4fc0700843e20001c
:10187400050020006033b80047fc07000000be00ec
:0818840001000700d4ff37004a
:020000040000fa
:10188c00f03fb1000180b10006003500ee03090005
:10189c0000000000403fb1000180b100fbff3d00a3
:1018ac001000b000203fb00002003500008009009d
:0818bc0000000000000006001e
:020000040000fa
:1018c4000000fa0062fe07000080fa000000060033
:020000040000fa
:1018d40000080000040000000000000000000000f8
:020000040000fa
:0200000401f009
:04000000ffff0000fe
:020000040000fa
:0200000401f009
:04000400ffff0000fa
:020000040000fa
:0200000401f009
:04000800ffff0000f6
:020000040000fa
:0200000401f009
:04000c0078ff000079
:020000040000fa
:0200000401f009
:04001000bbff000032
:020000040000fa
:0200000401f009
:040014007fffff006b
:00000001FF
